:020000002229B3
:10000800FF00030E8301AF000A08B0008A017008E0
:10001800A0008B1C1128FD308B050B1D1A28F83009
:100028008100A10A0319A20AFB308B052008F00001
:0E00380030088A002F0E8300FF0E7F0E090095
:1000460083120313FB01FA01F9018030F800F10C69
:10005600F00C031C37287408F90775080318750F88
:10006600FA070318FB0A0310F01F3F287408FA0763
:1000760075080318750FFB07FB0CFA0CF90CF80C46
:10008600031C2A287B08F3007A08F2007908F1009D
:060096007808F0000800EC
:10009C0083120313F801F9011030FC00710DF80DF7
:1000AC00F90D7408F8027508031C750FF902031892
:1000BC0066287408F80775080318750FF9070310FC
:0A00CC00F00DF10DFC0B54280800A4
:1000D60083120313B501B601B501B6013408360221
:1000E600031D77283308350203187F280000000017
:0A00F600B50A0319B60A71280800C4
:0E010000831203132A088A00290882000800CF
:10010E0083120313A101A20132082202031D9128BA
:0C011E0031082102031894288B280800E7
:0C012A00E73083120313870587160800D6
:0C013600831203138715CF3087050800E3
:100142004130831203139F00F03083169F00080092
:10015200831203131F151F19AF28AC281E08F100C4
:0E016200F00183161E08F0040030F1040800BE
:0C017000F9308312031387050714080000
:0C017C00FC3083120313870507150800F0
:1001880030308312031390008E010E088F008615FD
:100198000A30B3000030B4006B20F730860506083B
:1001A8000130031D0030F100711EDB28D328101424
:1001B800061EDF28DC28FE3090050F08F100F0014C
:1001C8000E08F0040030F1047008A5007108A600BC
:1001D8003B30F4000030F5004E207008A50071088F
:1001E800A600F00A0319F10A7008A5007108A60014
:1001F8007230F4000130F50023206430F400003040
:10020800F5004E207008A3007108A4008E010E08A6
:040218008F0008004B
:10021C0080208A110A128000840AA90A0319AA0AEA
:08022C00F003031D0E29080078
:100234004930831203139F00F03083169F00080097
:1002440083120313A101A2011030831686008701D3
:1002540088011F30850087308100B0308B00C830A2
:100264008312B100B2018720A120A9207008831253
:10027400A7007108A8007108023C031D43297008F7
:10028400263C031C4729952048299B20C830B100EF
:10029400B20187201A21A92070088312AD007108C9
:1002A400AE007108023C031D59297008263C031C4A
:1002B4005D29BE205E29B820C830B100B201872074
:1002C400C4207008AB007108AC0000307102031D3B
:1002D4006D290F307002031C79292C08003C031D82
:1002E40075292B08143C031C792908157D29C8306D
:0A02F400B100B201872031297E29F4
:02400E004A2F37
:00000001FF
